{
  "_format": "hh-sol-artifact-1",
  "contractName": "RevocationStore",
  "sourceName": "contracts/RevocationStore.sol",
  "abi": [
    {
      "inputs": [
        {
          "internalType": "bytes32",
          "name": "_key",
          "type": "bytes32"
        }
      ],
      "name": "isRevoked",
      "outputs": [
        {
          "internalType": "bool",
          "name": "",
          "type": "bool"
        }
      ],
      "stateMutability": "view",
      "type": "function"
    },
    {
      "inputs": [
        {
          "internalType": "address",
          "name": "",
          "type": "address"
        },
        {
          "internalType": "bytes32",
          "name": "",
          "type": "bytes32"
        }
      ],
      "name": "revocations",
      "outputs": [
        {
          "internalType": "bool",
          "name": "",
          "type": "bool"
        }
      ],
      "stateMutability": "view",
      "type": "function"
    },
    {
      "inputs": [
        {
          "internalType": "bytes32",
          "name": "_key",
          "type": "bytes32"
        }
      ],
      "name": "revoke",
      "outputs": [],
      "stateMutability": "nonpayable",
      "type": "function"
    }
  ],
  "bytecode": "0x608060405234801561001057600080fd5b50610334806100206000396000f3fe608060405234801561001057600080fd5b50600436106100415760003560e01c80634294857f14610046578063b393459914610076578063b75c7dc6146100a6575b600080fd5b610060600480360381019061005b91906101fd565b6100c2565b60405161006d9190610245565b60405180910390f35b610090600480360381019061008b91906102be565b610128565b60405161009d9190610245565b60405180910390f35b6100c060048036038101906100bb91906101fd565b610157565b005b60008060003373ffffffffffffffffffffffffffffffffffffffff1673ffffffffffffffffffffffffffffffffffffffff168152602001908152602001600020600083815260200190815260200160002060009054906101000a900460ff169050919050565b60006020528160005260406000206020528060005260406000206000915091509054906101000a900460ff1681565b60016000803373ffffffffffffffffffffffffffffffffffffffff1673ffffffffffffffffffffffffffffffffffffffff168152602001908152602001600020600083815260200190815260200160002060006101000a81548160ff02191690831515021790555050565b600080fd5b6000819050919050565b6101da816101c7565b81146101e557600080fd5b50565b6000813590506101f7816101d1565b92915050565b600060208284031215610213576102126101c2565b5b6000610221848285016101e8565b91505092915050565b60008115159050919050565b61023f8161022a565b82525050565b600060208201905061025a6000830184610236565b92915050565b600073ffffffffffffffffffffffffffffffffffffffff82169050919050565b600061028b82610260565b9050919050565b61029b81610280565b81146102a657600080fd5b50565b6000813590506102b881610292565b92915050565b600080604083850312156102d5576102d46101c2565b5b60006102e3858286016102a9565b92505060206102f4858286016101e8565b915050925092905056fea2646970667358221220388bad6cb3bf5ab5d1ae2ebc2cd40bbfc4cc4003f9e2554f896913c97ba0c1db64736f6c63430008130033",
  "linkReferences": {},
  "deployedLinkReferences": {}
}